:020000040800F2
:10000000005000202D060008DD050008E905000865
:10001000EF050008F5050008FB05000800000000DA
:10002000000000000000000000000000812900081E
:100030000106000800000000512B0008992B000861
:1000400075060008750600087506000875060008A4
:100050007506000875060008750600087506000894
:100060007506000875060008750600087506000884
:100070007506000875060008750600087506000874
:100080007506000875060008750600087506000864
:100090007506000875060008750600087506000854
:1000A000750600080D0600087506000875060008AC
:1000B0007506000875060008750600087506000834
:1000C0007506000875060008750600087506000824
:1000D0007506000875060008750600087506000814
:1000E0007506000875060008750600080000000087
:1000F0000000000000000000000000000000000000
:0C01000000000000000000005FF808F1A3
:1001100010B5054C237833B9044B13B10448AFF341
:1001200000800123237010BD140000200000000097
:100130001C30000808B5034B1BB103490348AFF35B
:10014000008008BD00000000180000201C300008DE
:10015000034613F8012B002AFBD1181A0138704707
:1001600080B485B000AFF860B9607A60FB68064A79
:100170001A60BB68054A1A607B6880221A6000BF5B
:100180001437BD4680BC704730000020840000203A
:10019000B0B58EB000AF00F06FFA00F037F800F0A5
:1001A0009BF800F06FF8144B07F11C041D460FCDAF
:1001B0000FC495E8070084E8070007F11C0300213D
:1001C000184601F063FD02460C4B1A600C4B3C468E
:1001D0001D460FCD0FC495E8070084E80700094BC2
:1001E0001A683B461146184601F050FD0246064B80
:1001F0001A6001F044FDFEE750300008D00F0020E7
:1002000074300008000000201410002080B590B069
:1002100000AF07F1180328220021184602F0F6FE6D
:100220003B1D00221A605A609A60DA601A6102234C
:10023000BB610123BB621023FB6200237B6307F1D8
:100240001803184600F0B6FC0346002B01D000F05E
:10025000EBF80F237B600023BB600023FB600023CF
:100260003B6100237B613B1D0021184600F022FF0B
:100270000346002B01D000F0D7F800BF4037BD4641
:1002800080BD000080B500AF114B124A1A60104BC0
:100290004FF4E1325A600E4B00229A600C4B002260
:1002A000DA600B4B00221A61094B0C225A61084B91
:1002B00000229A61064B0022DA61054801F010FB2A
:1002C0000346002B01D000F0AFF800BF80BD00BF97
:1002D000D40F00200038014080B588B000AF07F18E
:1002E000100300221A605A609A60DA60274B9B69FB
:1002F000264A43F010039361244B9B6903F01003DB
:10030000FB60FB68214B9B69204A43F0200393610B
:100310001E4B9B6903F02003BB60BB681B4B9B69B2
:100320001A4A43F004039361184B9B6903F00403DA
:100330007B607B6800224FF40051154800F008FCF8
:1003400000223021134800F003FC4FF400533B61BE
:1003500001237B610023BB610223FB6107F11003D2
:1003600019460B4800F09AFA30233B6101237B6168
:100370000023BB610223FB6107F110031946054806
:1003800000F08CFA00BF2037BD4680BD001002404F
:10039000001001400008014080B582B000AF7860D5
:1003A000786800F011F8322001F0BCFCF8E700009A
:1003B00080B500AF4FF40051024800F0E1FB00BFF0
:1003C00080BD00BF0010014080B582B000AF7860F2
:1003D0007868FFF7BDFE03469AB232237968034876
:1003E00001F0CBFA00BF0837BD4680BDD40F002016
:1003F00080B582B000AF7860FFF7DAFF642001F0CB
:1004000091FCF9E780B582B000AF78607B681B682B
:10041000044A934201D100F045F900BF0837BD46B8
:1004200080BD00BF002C014080B400AF00BFBD46BE
:1004300080BC704780B485B000AF154B9B69144AEF
:1004400043F001039361124B9B6903F00103BB600E
:10045000BB680F4BDB690E4A43F08053D3610C4BF2
:10046000DB6903F080537B607B680A4B5B68FB6051
:10047000FB6823F0E063FB60FB6843F00073FB6004
:10048000044AFB68536000BF1437BD4680BC704708
:10049000001002400000014080B588B000AF7860D5
:1004A00007F1100300221A605A609A60DA607B68D4
:1004B0001B681C4A934231D11B4B9B691A4A43F477
:1004C00080439361184B9B6903F48043FB60FB6896
:1004D000154B9B69144A43F004039361124B9B69CB
:1004E00003F00403BB60BB684FF400733B6102235D
:1004F0007B610323FB6107F1100319460B4800F0F1
:10050000CDF94FF480633B6100237B610023BB6125
:1005100007F110031946054800F0C0F900BF203765
:10052000BD4680BD00380140001002400008014077
:1005300080B58CB000AF78600023FB620023BB6203
:1005400000227968192000F07EF9192000F097F94F
:100550001E4B9B691D4A43F4006393611B4B9B69CF
:1005600003F40063FB60FB6807F1100207F114035A
:100570001146184600F01CFF00F006FFF862FB6A07
:10058000134AA2FB03239B0C013BBB62114B124A93
:100590001A60104B40F2E732DA600E4ABB6A5360D1
:1005A0000C4B00221A610B4B00229A60094800F0A4
:1005B0004DFF0346002B04D1064800F09FFF034681
:1005C00000E0012318463037BD4680BD00100240D0
:1005D00083DE1B4318100020002C014080B400AFC4
:1005E00000BFBD4680BC704780B400AFFEE780B45A
:1005F00000AFFEE780B400AFFEE780B400AFFEE7D7
:1006000080B400AF00BFBD4680BC704780B500AF6E
:10061000024800F0C5FF00BF80BD00BF18100020D9
:1006200080B400AF00BFBD4680BC7047002103E02E
:100630000B4B5B58435004310A480B4B42189A420B
:10064000F6D30A4A02E0002342F8043B084B9A42E0
:10065000F9D3FFF7E5FF02F0B5FCFFF799FD70470E
:10066000CC300008000000201400002014000020FE
:1006700064100020FEE7000080B500AF084B1B6847
:10068000074A43F010031360032000F0D1F8002064
:10069000FFF74EFFFFF7CEFE0023184680BD00BFD8
:1006A0000020024080B400AF054B1B781A46054B72
:1006B0001B681344034A136000BFBD4680BC7047EB
:1006C0000C0000206010002080B400AF024B1B68BB
:1006D0001846BD4680BC70476010002080B485B0CD
:1006E00000AF78607B6803F00703FB600C4BDB68AE
:1006F000BB60BA684FF6FF031340BB60FB681A0289
:10070000BB68134343F0BF6343F40033BB60044A48
:10071000BB68D36000BF1437BD4680BC704700BFC4
:1007200000ED00E080B400AF044BDB681B0A03F06F
:1007300007031846BD4680BC704700BF00ED00E0CF
:1007400080B483B000AF0346FB7197F90730002BEC
:100750000BDBFB7903F01F02064997F907305B09B1
:10076000012000FA02F241F8232000BF0C37BD46F9
:1007700080BC704700E100E080B483B000AF034666
:100780003960FB7197F90730002B0ADB3B68DAB25E
:100790000C4997F907301201D2B20B4483F80023B9
:1007A0000AE03B68DAB20849FB7903F00F03043B27
:1007B0001201D2B20B441A7600BF0C37BD4680BC82
:1007C000704700BF00E100E000ED00E080B489B0B8
:1007D00000AFF860B9607A60FB6803F00703FB6163
:1007E000FB69C3F10703042B28BF0423BB61FB692A
:1007F0000433062B02D9FB69033B00E000237B6135
:100800004FF0FF32BB6902FA03F3DA43BB681A40C8
:100810007B699A404FF0FF317B6901FA03F3D943BA
:100820007B680B40134318462437BD4680BC704795
:1008300080B582B000AF78607868FFF74FFF00BFE7
:100840000837BD4680BD80B586B000AF0346B960AD
:100850007A60FB7300237B61FFF764FF78617A683D
:10086000B9687869FFF7B2FF024697F90F30114671
:100870001846FFF781FF00BF1837BD4680BD80B521
:1008800082B000AF0346FB7197F907301846FFF7B7
:1008900057FF00BF0837BD4680BD000080B48BB055
:1008A00000AF7860396000237B6200233B6227E160
:1008B00001227B6A02FA03F3FB613B681B68FA6959
:1008C0001340BB61BA69FB699A4240F016813B68EC
:1008D0005B68122B34D0122B0DD8022B2BD0022B9D
:1008E00004D8002B31D0012B1CD048E0032B43D07F
:1008F000112B1BD043E0894A934226D0874A93426A
:1009000006D8874A934220D0864A93421DD036E0CB
:10091000854A934219D0854A934216D0844A93421D
:1009200013D02CE03B68DB683B6228E03B68DB6867
:1009300004333B6223E03B68DB6808333B621EE024
:100940003B68DB680C333B6219E03B689B68002B1B
:1009500002D104233B6212E03B689B68012B05D166
:1009600008233B627B68FA691A6108E008233B624E
:100970007B68FA695A6102E000233B6200BFBB69F1
:10098000FF2B01D87B6801E07B6804337B61BB6986
:10099000FF2B02D87B6A9B0002E07B6A083B9B002E
:1009A0003B617B691A680F213B6901FA03F3DB4362
:1009B0001A40396A3B6901FA03F31A437B691A60EA
:1009C0003B685B6803F08053002B00F09680594B26
:1009D0009B69584A43F001039361564B9B6903F0AE
:1009E0000103BB60BB68544A7B6A9B08023352F820
:1009F0002330FB607B6A03F003039B000F2202FAA3
:100A000003F3DB43FA681340FB607B684B4A934275
:100A100013D07B684A4A93420DD07B68494A93427F
:100A200007D07B68484A934201D1032306E00423A0
:100A300004E0022302E0012300E000237A6A02F0CE
:100A4000030292009340FA681343FB603A497B6AC1
:100A50009B080233FA6841F823203B685B6803F483
:100A60008033002B06D0394B1A683849BB691343D1
:100A70000B6006E0354B1A68BB69DB433349134012
:100A80000B603B685B6803F40033002B06D02F4BF0
:100A90005A682E49BB6913434B6006E02B4B5A68DA
:100AA000BB69DB43294913404B603B685B6803F437
:100AB0008013002B06D0254B9A682449BB69134349
:100AC0008B6006E0214B9A68BB69DB431F491340EA
:100AD0008B603B685B6803F40013002B06D01B4B54
:100AE000DA681A49BB691343CB6006E0174BDA6832
:100AF000BB69DB4315491340CB607B6A01337B62E2
:100B00003B681A687B6A22FA03F3002B7FF4D0AEAD
:100B100000BF2C37BD4680BC704700BF00002110CD
:100B200000001110000012100000311000003210FF
:100B300000002210001002400000014000080140A7
:100B4000000C01400010014000140140000401406D
:100B500080B483B000AF78600B467B8013467B7017
:100B60007B78002B03D07A887B681A6103E07B884E
:100B70001A047B681A6100BF0C37BD4680BC704701
:100B800080B485B000AF78600B467B807B68DB6803
:100B9000FB607A88FB6813401A04FB68D9437B88A2
:100BA0000B401A437B681A6100BF1437BD4680BCF6
:100BB0007047000080B586B000AF78607B68002B7E
:100BC00001D101236CE27B681B6803F00103002B59
:100BD00000F08780924B5B6803F00C03042B0CD071
:100BE0008F4B5B6803F00C03082B12D18C4B5B68B6
:100BF00003F48033B3F5803F0BD1894B1B6803F4BA
:100C00000033002B6CD07B685B68002B68D101231C
:100C100046E27B685B68B3F5803F06D1804B1B687A
:100C20007F4A43F4803313602EE07B685B68002BBF
:100C30000CD17B4B1B687A4A23F480331360784BCA
:100C40001B68774A23F4802313601DE07B685B6890
:100C5000B3F5A02F0CD1724B1B68714A43F480236B
:100C600013606F4B1B686E4A43F4803313600BE0D4
:100C70006B4B1B686A4A23F480331360684B1B6814
:100C8000674A23F4802313607B685B68002B13D0D2
:100C9000FFF71AFD386108E0FFF716FD02463B69D1
:100CA000D31A642B01D90323FAE15D4B1B6803F4CB
:100CB0000033002BF0D014E0FFF706FD386108E0A8
:100CC000FFF702FD02463B69D31A642B01D90323C7
:100CD000E6E1534B1B6803F40033002BF0D100E036
:100CE00000BF7B681B6803F00203002B63D04C4BF2
:100CF0005B6803F00C03002B0BD0494B5B6803F0DF
:100D00000C03082B1CD1464B5B6803F48033002B8B
:100D100016D1434B1B6803F00203002B05D07B6800
:100D20001B69012B01D00123BAE13D4B1B6823F065
:100D3000F8027B685B69DB00394913430B603AE0DA
:100D40007B681B69002B20D0364B01221A60FFF70D
:100D5000BBFC386108E0FFF7B7FC02463B69D31AD9
:100D6000022B01D903239BE12D4B1B6803F00203E7
:100D7000002BF0D02A4B1B6823F0F8027B685B69DC
:100D8000DB00274913430B6015E0264B00221A6055
:100D9000FFF79AFC386108E0FFF796FC02463B69D2
:100DA000D31A022B01D903237AE11D4B1B6803F0F0
:100DB0000203002BF0D17B681B6803F00803002BB3
:100DC0003AD07B689B69002B19D0174B01221A601F
:100DD000FFF77AFC386108E0FFF776FC02463B69D2
:100DE000D31A022B01D903235AE10D4B5B6A03F09E
:100DF0000203002BF0D0012000F00AFB1CE00A4B9C
:100E000000221A60FFF760FC38610FE0FFF75CFC1E
:100E100002463B69D31A022B08D9032340E100BFE5
:100E20000010024000004242800442429E4B5B6A36
:100E300003F00203002BE9D17B681B6803F0040375
:100E4000002B00F0A6800023FB75974BDB6903F0B5
:100E50008053002B0DD1944BDB69934A43F08053B0
:100E6000D361914BDB6903F08053BB60BB68012306
:100E7000FB758E4B1B6803F48073002B18D18B4BD2
:100E80001B688A4A43F480731360FFF71DFC3861C6
:100E900008E0FFF719FC02463B69D31A642B01D91D
:100EA0000323FDE0814B1B6803F48073002BF0D01B
:100EB0007B68DB68012B06D17B4B1B6A7A4A43F0C7
:100EC000010313622DE07B68DB68002B0CD1764BAD
:100ED0001B6A754A23F001031362734B1B6A724A43
:100EE00023F0040313621CE07B68DB68052B0CD144
:100EF0006D4B1B6A6C4A43F0040313626A4B1B6A16
:100F0000694A43F0010313620BE0674B1B6A664AB0
:100F100023F001031362644B1B6A634A23F004034A
:100F200013627B68DB68002B15D0FFF7CDFB3861BF
:100F30000AE0FFF7C9FB02463B69D31A41F2883247
:100F4000934201D90323ABE0574B1B6A03F0020322
:100F5000002BEED014E0FFF7B7FB38610AE0FFF793
:100F6000B3FB02463B69D31A41F28832934201D95E
:100F7000032395E04C4B1B6A03F00203002BEED1D8
:100F8000FB7D012B05D1484BDB69474A23F0805399
:100F9000D3617B68DB69002B00F08180424B5B688A
:100FA00003F00C03082B61D07B68DB69022B46D170
:100FB0003F4B00221A60FFF787FB386108E0FFF71C
:100FC00083FB02463B69D31A022B01D9032367E056
:100FD000354B1B6803F00073002BF0D17B681B6A54
:100FE000B3F5803F08D1304B5B6823F400327B6857
:100FF0009B682D4913434B602B4B5B6823F47412A1
:101000007B68196A7B685B6A0B43274913434B6013
:10101000274B01221A60FFF757FB386108E0FFF702
:1010200053FB02463B69D31A022B01D9032337E055
:101030001D4B1B6803F00073002BF0D02FE01C4BFE
:1010400000221A60FFF740FB386108E0FFF73CFB25
:1010500002463B69D31A022B01D9032320E0124B2D
:101060001B6803F00073002BF0D118E07B68DB698C
:10107000012B01D1012313E00B4B5B68FB60FB6884
:1010800003F480327B681B6A9A4206D1FB6803F442
:1010900070127B685B6A9A4201D0012300E0002352
:1010A00018461837BD4680BD001002400070004051
:1010B0006000424280B584B000AF786039607B68E0
:1010C000002B01D10123D0E06A4B1B6803F007031A
:1010D0003A689A4210D9674B1B6823F007026549AA
:1010E0003B6813430B60634B1B6803F007033A68CC
:1010F0009A4201D00123B8E07B681B6803F0020329
:10110000002B20D07B681B6803F00403002B05D064
:10111000594B5B68584A43F4E06353607B681B6833
:1011200003F00803002B05D0534B5B68524A43F48D
:1011300060535360504B5B6823F0F0027B689B6800
:101140004D4913434B607B681B6803F00103002B80
:1011500040D07B685B68012B07D1474B1B6803F4C9
:101160000033002B15D101237FE07B685B68022BE5
:1011700007D1414B1B6803F00073002B09D10123F9
:1011800073E03D4B1B6803F00203002B01D10123E8
:101190006BE0394B5B6823F003027B685B68364980
:1011A00013434B60FFF790FAF8600AE0FFF78CFA00
:1011B0000246FB68D31A41F28832934201D90323D5
:1011C00053E02D4B5B6803F00C027B685B689B006F
:1011D0009A42EBD1274B1B6803F007033A689A4207
:1011E00010D2244B1B6823F0070222493B681343AB
:1011F0000B60204B1B6803F007033A689A4201D04A
:10120000012332E07B681B6803F00403002B08D045
:10121000194B5B6823F4E0627B68DB681649134373
:101220004B607B681B6803F00803002B09D0124B4E
:101230005B6823F460527B681B69DB000E49134333
:101240004B6000F021F801460B4B5B681B0903F073
:101250000F030A4AD35C21FA03F3094A1360094BCE
:101260001B681846FFF764F9002318461037BD467F
:1012700080BD00BF0020024000100240AC300008DA
:10128000040000200800002090B48AB000AF2A4B70
:101290003C1D0FCB84E80F00284B1B883B800023AC
:1012A000FB610023BB6100237B6200237B61002381
:1012B0003B62234B5B68FB61FB6903F00C03042B6F
:1012C00002D0082B03D02DE01E4B3B622DE0FB69C2
:1012D0009B0C03F00F0307F12802134413F8243C7E
:1012E0007B61FB6903F48033002B13D0144B5B68E4
:1012F0005B0C03F0010307F12802134413F8283CA8
:10130000BB617B690F4A02FB03F2BB69B2FBF3F3DB
:101310007B6204E07B690C4A02FB03F37B627B6A1D
:101320003B6202E0074B3B6200BF3B6A184628372E
:10133000BD4690BC704700BF90300008A030000848
:101340000010024000127A0000093D0080B400AF96
:10135000024B1B681846BD4680BC70470400002045
:1013600080B500AFFFF7F2FF0146054B5B681B0A33
:1013700003F00703034AD35C21FA03F3184680BD48
:1013800000100240BC30000880B500AFFFF7DEFF60
:101390000146054B5B68DB0A03F00703034AD35C95
:1013A00021FA03F3184680BD00100240BC3000084B
:1013B00080B483B000AF786039607B680F221A6018
:1013C000114B5B6803F003027B685A600E4B5B684D
:1013D00003F0F0027B689A600B4B5B6803F4E062F9
:1013E0007B68DA60084B5B68DB0803F4E0627B68CB
:1013F0001A61064B1B6803F007023B681A6000BFC6
:101400000C37BD4680BC70470010024000200240EF
:1014100080B485B000AF78600A4B1B680A4AA2FB13
:1014200003235B0A7A6802FB03F3FB6000BFFB68DF
:101430005A1EFA60002BF9D100BF1437BD4680BC9C
:10144000704700BF04000020D34D621080B582B009
:1014500000AF78607B68002B01D1012341E07B68FD
:1014600093F83D30DBB2002B06D17B68002283F875
:101470003C20786800F039F87B68022283F83D2030
:101480007B681A687B6804331946104600F0B4F98B
:101490007B68012283F846207B68012283F83E2086
:1014A0007B68012283F83F207B68012283F840207B
:1014B0007B68012283F841207B68012283F8422067
:1014C0007B68012283F843207B68012283F8442053
:1014D0007B68012283F845207B68012283F83D2048
:1014E000002318460837BD4680BD80B483B000AFE6
:1014F000786000BF0C37BD4680BC704780B485B0B3
:1015000000AF78607B6893F83D30DBB2012B01D0EF
:1015100001233AE07B68022283F83D207B681B6848
:10152000DA687B681B6842F00102DA607B681B683E
:10153000184A93420ED07B681B68B3F1804F09D0E4
:101540007B681B68144A934204D07B681B68134A6B
:10155000934211D17B681B689B6803F00703FB6013
:10156000FB68062B10D07B681B681A687B681B68B9
:1015700042F001021A6007E07B681B681A687B680A
:101580001B6842F001021A60002318461437BD465A
:1015900080BC7047002C014000040040000800405F
:1015A00080B582B000AF78607B681B681B6903F070
:1015B0000203022B22D17B681B68DB6803F0020365
:1015C000022B1BD17B681B686FF002021A617B68DB
:1015D00001221A777B681B689B6903F00303002BC9
:1015E00003D0786800F0EDF805E0786800F0E0F8E6
:1015F000786800F0EFF87B6800221A777B681B6838
:101600001B6903F00403042B22D17B681B68DB6891
:1016100003F00403042B1BD17B681B686FF00402EA
:101620001A617B6802221A777B681B689B6903F446
:101630004073002B03D0786800F0C3F805E07868A9
:1016400000F0B6F8786800F0C5F87B6800221A77D9
:101650007B681B681B6903F00803082B22D17B6899
:101660001B68DB6803F00803082B1BD17B681B6831
:101670006FF008021A617B6804221A777B681B6886
:10168000DB6903F00303002B03D0786800F099F8BE
:1016900005E0786800F08CF8786800F09BF87B68CB
:1016A00000221A777B681B681B6903F01003102B5C
:1016B00022D17B681B68DB6803F01003102B1BD161
:1016C0007B681B686FF010021A617B6808221A772A
:1016D0007B681B68DB6903F44073002B03D07868D8
:1016E00000F06FF805E0786800F062F8786800F0C4
:1016F00071F87B6800221A777B681B681B6903F00E
:101700000103012B0ED17B681B68DB6803F001032A
:10171000012B07D17B681B686FF001021A617868A2
:10172000FEF770FE7B681B681B6903F08003802B4B
:101730000ED17B681B68DB6803F08003802B07D128
:101740007B681B686FF080021A61786800F0BFF850
:101750007B681B681B6903F04003402B0ED17B683C
:101760001B68DB6803F04003402B07D17B681B68D4
:101770006FF040021A61786800F035F87B681B68EA
:101780001B6903F02003202B0ED17B681B68DB68EC
:1017900003F02003202B07D17B681B686FF0200229
:1017A0001A61786800F08AF800BF0837BD4680BD2E
:1017B00080B483B000AF786000BF0C37BD4680BCFA
:1017C000704780B483B000AF786000BF0C37BD466F
:1017D00080BC704780B483B000AF786000BF0C3726
:1017E000BD4680BC704780B483B000AF786000BF56
:1017F0000C37BD4680BC704780B485B000AF7860C0
:1018000039607B681B68FB607B68294A93420BD078
:101810007B68B3F1804F07D07B68264A934203D0A0
:101820007B68254A934208D1FB6823F07003FB6074
:101830003B685B68FA681343FB607B681C4A934211
:101840000BD07B68B3F1804F07D07B68194A934275
:1018500003D07B68184A934208D1FB6823F4407395
:10186000FB603B68DB68FA681343FB60FB6823F0AE
:1018700080023B685B691343FB607B68FA681A600F
:101880003B689A687B68DA623B681A687B689A6290
:101890007B68074A934203D13B681A697B681A63E5
:1018A0007B6801225A6100BF1437BD4680BC704777
:1018B000002C0140000400400008004080B483B0C8
:1018C00000AF786000BF0C37BD4680BC704780B465
:1018D00083B000AF786000BF0C37BD4680BC704756
:1018E00080B582B000AF78607B68002B01D1012306
:1018F0003FE07B6893F83930DBB2002B06D17B6880
:10190000002283F838207868FEF7C6FD7B68242221
:1019100083F839207B681B68DA687B681B6822F4CF
:101920000052DA60786800F005F97B681B681A6974
:101930007B681B6822F490421A617B681B685A69B5
:101940007B681B6822F02A025A617B681B68DA6890
:101950007B681B6842F40052DA607B680022DA631D
:101960007B68202283F839207B68202283F83A2084
:10197000002318460837BD4680BD80B58AB002AF47
:10198000F860B9603B601346FB8000237B61FB6815
:1019900093F83930DBB2202B7CD1BB68002B02D00E
:1019A000FB88002B01D1012375E0FB6893F83830E8
:1019B000012B01D102236EE0FB68012283F838205D
:1019C000FB680022DA63FB68212283F83920FEF7E6
:1019D0007BFE7861FB68FA889A84FB68FA88DA846F
:1019E000FB689B68B3F5805F08D1FB681B69002B1F
:1019F00004D10023FB61BB68BB6103E0BB68FB61F2
:101A00000023BB61FB68002283F838202AE03B6892
:101A100000937B6900228021F86800F040F80346BB
:101A2000002B01D0032336E0FB69002B0BD1BB69EF
:101A30001B881A46FB681B68C2F308025A60BB6920
:101A40000233BB6107E0FB691A78FB681B685A60C8
:101A5000FB690133FB61FB68DB8C9BB2013B9AB2F3
:101A6000FB68DA84FB68DB8C9BB2002BCFD13B6830
:101A700000937B6900224021F86800F010F80346CB
:101A8000002B01D0032306E0FB68202283F83920D5
:101A9000002300E0022318462037BD4680BD80B5F4
:101AA00084B000AFF860B9603B601346FB712CE076
:101AB000BB69B3F1FF3F28D0BB69002B07D0FEF70D
:101AC00003FE02463B68D31ABA699A421DD2FB68EC
:101AD0001B68DA68FB681B6822F4D072DA60FB6866
:101AE0001B685A69FB681B6822F001025A61FB6897
:101AF000202283F83920FB68202283F83A20FB68F3
:101B0000002283F8382003230FE0FB681B681A6863
:101B1000BB681340BA689A420CBF01230023DBB2B2
:101B20001A46FB799A42C3D0002318461037BD46A7
:101B300080BD000080B584B000AF78607B681B6812
:101B40001B6923F440517B68DA687B681B680A4391
:101B50001A617B689A687B681B691A437B685B69BA
:101B60001343BB607B681B68DB6823F4B05323F02E
:101B70000C037A681268B9680B43D3607B681B68F2
:101B80005B6923F440717B689A697B681B680A4330
:101B90005A617B681B682C4A934203D1FFF7F4FB20
:101BA000F86002E0FFF7DCFBF860FA6813469B0080
:101BB00013449A001A447B685B689B00B2FBF3F302
:101BC000224AA2FB03235B091901FA6813469B0012
:101BD00013449A001A447B685B689B00B2FBF3F2E3
:101BE0001A4BA3FB02035B09642000FB03F3D31A27
:101BF0001B013233154AA2FB03235B0903F0F003F8
:101C00001944FA6813469B0013449A001A447B68EF
:101C10005B689B00B2FBF3F20C4BA3FB02035B0976
:101C2000642000FB03F3D31A1B013233074AA2FBE3
:101C300003235B0903F00F027B681B680A449A6068
:101C400000BF1037BD4680BD003801401F85EB51F5
:101C500080B485B000AF0346FB800023FB60B7F97A
:101C60000630842B05D0B7F90620FB6813440333F4
:101C7000FB60FB6818461437BD4680BC704780B5D2
:101C800000AF00F0CDFA0023184680BDF0B589B052
:101C900004AF786039607B685B69002B20D07B687B
:101CA0009B69002B1CD07B685C687B681D687B6827
:101CB0001E697B68B3F908301846FFF7C9FF014673
:101CC0007B685B697A6892690292019300913B6834
:101CD00032462946204600F0E8F80346FB601CE047
:101CE0007B685C687B681D687B681B699EB27B684B
:101CF000B3F908301846FFF7ABFF024607F10C03B3
:101D0000019300923B6832462946204600F026F9AE
:101D10000346012B01D0002300E0FB68184614376E
:101D2000BD46F0BD80B584B000AF78607B68FB60D5
:101D3000FB68002B01D0FB6800E00123184600F08F
:101D40003BFA002318461037BD4680BD80B483B0EF
:101D500000AF78607B6803F108027B685A607B689B
:101D60004FF0FF329A607B6803F108027B68DA600B
:101D70007B6803F108027B681A617B6800221A60A5
:101D800000BF0C37BD4680BC704780B483B000AF45
:101D900078607B6800221A6100BF0C37BD4680BCAA
:101DA000704780B485B000AF786039607B685B684D
:101DB000FB603B68FA685A60FB689A683B689A6007
:101DC000FB689B683A685A60FB683A689A603B68AF
:101DD0007A681A617B681B685A1C7B681A6000BFAE
:101DE0001437BD4680BC704780B485B000AF7860C2
:101DF00039603B681B68BB60BB68B3F1FF3F03D130
:101E00007B681B69FB600CE07B680833FB6002E0C9
:101E1000FB685B68FB60FB685B681B68BA689A429A
:101E2000F6D2FB685A683B685A603B685B683A6860
:101E30009A603B68FA689A60FB683A685A603B6847
:101E40007A681A617B681B685A1C7B681A6000BF3D
:101E50001437BD4680BC704780B485B000AF786051
:101E60007B681B69FB607B685B687A6892689A6034
:101E70007B689B687A6852685A60FB685B687A681E
:101E80009A4203D17B689A68FB685A607B6800229B
:101E90001A61FB681B685A1EFB681A60FB681B68A6
:101EA00018461437BD4680BC704780B58EB004AF6D
:101EB000F860B9607A603B607B6B002B09D14FF012
:101EC000500383F31188BFF36F8FBFF34F8F3B62D3
:101ED000FEE7BB6B002B09D14FF0500383F3118851
:101EE000BFF36F8FBFF34F8FFB61FEE754233B615E
:101EF0003B69542B09D04FF0500383F31188BFF393
:101F00006F8FBFF34F8FBB61FEE7BB6B002B1ED003
:101F10007B6B002B1BD0BB6B7B627B6A7A6B1A637B
:101F20007B6A022283F85120002303937B6A029389
:101F300007F1140301933B6B00933B687A68B9681F
:101F4000F86800F050F8786A00F0CCF801E000235F
:101F50007B617B6918462837BD4680BD80B58CB053
:101F600004AFF860B9603B601346FB80FB889B00C0
:101F7000184600F053FE78617B69002B0ED0542088
:101F800000F04CFEF861FB69002B03D0FB697A6915
:101F90001A6305E0786900F003FF01E00023FB61AC
:101FA000FB69002B17D0FB69002283F85120FA88C7
:101FB00000230393FB690293FB6A0193BB6A0093BE
:101FC0003B68B968F86800F00EF8F86900F08AF824
:101FD0000123BB6102E04FF0FF33BB61BB691846D0
:101FE0002037BD4680BD80B588B000AFF860B960CD
:101FF0007A603B603B6B1A6B7B6803F18043013B6B
:102000009B001344BB61BB6923F00703BB61BB6941
:1020100003F00703002B09D04FF0500383F311881E
:10202000BFF36F8FBFF34F8F7B61FEE70023FB6130
:1020300012E0BA68FB69134419783A6BFB691344E0
:1020400034330A461A70BA68FB6913441B78002BB4
:1020500006D0FB690133FB61FB690F2BE9D900E076
:1020600000BF3B6B002283F84320BB6A062B01D9DB
:102070000623BB623B6BBA6ADA623B6BBA6A5A648C
:102080003B6B00229A643B6B04331846FFF77DFEDE
:102090003B6B18331846FFF778FE3B6B3A6B1A61BF
:1020A000BB6AC3F107023B6B9A613B6B3A6B5A62A6
:1020B0003B6B0022DA643B6B002283F850203A68C5
:1020C000F968B86900F006FC02463B6B1A60FB6ACF
:1020D000002B02D0FB6A3A6B1A6000BF2037BD4666
:1020E00080BD000080B582B000AF786000F0DCFCFD
:1020F0002A4B1B680133294A1360294B1B68002BAC
:1021000009D1274A7B681360244B1B68012B10D12F
:1021100000F0BCFA0DE0234B1B68002B09D1204BCB
:102120001B68DA6A7B68DB6A9A4202D81C4A7B68C1
:1021300013601D4B1B6801331B4A13607B68DB6A0D
:1021400001229A40194B1B681343184A13607B689D
:10215000DA6A13469B0013449B00154A1A447B68B5
:10216000043319461046FFF71CFE00F0CBFC0D4B64
:102170001B68002B0ED00A4B1B68DA6A7B68DB6A8F
:102180009A4207D20B4B4FF080521A60BFF34F8F29
:10219000BFF36F8F00BF0837BD4680BD84030020AA
:1021A0008402002090030020A00300208C03002064
:1021B0008802002004ED00E080B584B000AF7860B4
:1021C0000023FB607B68002B16D0134B1B68002B91
:1021D00009D04FF0500383F31188BFF36F8FBFF323
:1021E0004F8FBB60FEE700F079F80021786800F0BF
:1021F0000BFB00F081F8F860FB68002B07D1074B60
:102200004FF080521A60BFF34F8FBFF36F8F00BF44
:102210001037BD4680BD00BFAC03002004ED00E0D8
:1022200080B58AB004AF0023BB6000237B603A46D0
:10223000391D07F108031846FDF792FF39687B68DE
:10224000BA68029201930023009300230A461D49B5
:102250001D48FFF72AFE02461C4B1A601B4B1B68E9
:10226000002B02D001237B6101E000237B617B69AD
:10227000012B15D14FF0500383F31188BFF36F8FFB
:10228000BFF34F8F3B61124B4FF0FF321A60114B7F
:1022900001221A60104B00221A6000F095FB0DE03D
:1022A0007B69B3F1FF3F09D14FF0500383F31188ED
:1022B000BFF36F8FBFF34F8FFB60FEE700BF183790
:1022C000BD4680BDA43000085D260008A80300209C
:1022D000A4030020900300208803002080B400AFF6
:1022E000044B1B680133034A136000BFBD4680BC2A
:1022F000704700BFAC03002080B584B000AF00235E
:10230000FB600023BB60414B1B68002B09D14FF0E1
:10231000500383F31188BFF36F8FBFF34F8F3B6080
:10232000FEE700F0C1FB394B1B68013B374A1360E5
:10233000364B1B68002B61D1354B1B68002B5DD0E1
:102340002EE0344BDB68DB68FB60FB681833184613
:10235000FFF782FDFB6804331846FFF77DFDFB683D
:10236000DB6A01229A402C4B1B6813432A4A1360F4
:10237000FB68DA6A13469B0013449B00274A1A4401
:10238000FB68043319461046FFF70BFDFB68DA6A59
:10239000234B1B68DB6A9A4202D3224B01221A604C
:1023A0001C4B1B68002BCCD1FB68002B01D000F02C
:1023B00007FA1D4B1B687B607B68002B10D000F078
:1023C00037F80346002B02D0164B01221A607B68B7
:1023D000013B7B607B68002BF1D1134B00221A601C
:1023E000104B1B68002B09D00123BB600F4B4FF033
:1023F00080521A60BFF34F8FBFF36F8F00F082FBE4
:10240000BB6818461037BD4680BD00BFAC03002036
:1024100084030020440300208C0300208802002055
:1024200084020020980300209403002004ED00E0C3
:1024300080B586B000AF00237B61504B1B68002B3A
:1024400040F08C804E4B1B6801333B614C4A3B692A
:1024500013603B69002B1FD14A4B1B681B68002B84
:1024600009D04FF0500383F31188BFF36F8FBFF390
:102470004F8F3B60FEE7434B1B68FB60424B1B6882
:10248000404A1360404AFB681360404B1B680133AD
:102490003E4A136000F094F93D4B1B683A699A423A
:1024A0004DD3384B1B681B68002B01D1012300E082
:1024B0000023002B04D0364B4FF0FF321A603EE071
:1024C000304B1B68DB68DB68BB60BB685B687B60AC
:1024D0003A697B689A4203D22D4A7B6813602EE0EA
:1024E000BB6804331846FFF7B7FCBB689B6A002B38
:1024F00004D0BB6818331846FFF7AEFCBB68DB6A34
:1025000001229A40234B1B681343224A1360BB6885
:10251000DA6A13469B0013449B001F4A1A44BB68A7
:10252000043319461046FFF73CFCBB68DA6A1B4BC4
:102530001B68DB6A9A42B4D301237B61B1E7174B76
:102540001B68DA6A144913469B0013449B000B4432
:102550001B68012B07D901237B6104E0104B1B682A
:1025600001330F4A13600F4B1B68002B01D001236E
:102570007B617B6918461837BD4680BDAC030020DF
:10258000880300203C030020400300209C0300201F
:10259000A40300208C030020880200208402002075
:1025A000940300209803002080B487B000AF264B2E
:1025B0001B68002B03D0254B01221A603EE0234B01
:1025C00000221A60224B1B68FB60FB68B3FA83F39E
:1025D000FB72FB7AC3F11F037B611E497A691346C4
:1025E0009B0013449B000B441B68002B09D14FF048
:1025F000500383F31188BFF36F8FBFF34F8F7B605E
:10260000FEE77A6913469B0013449B00114A13446A
:102610003B613B695B685A683B695A603B695A6831
:102620003B6908339A4204D13B695B685A683B694D
:102630005A603B695B68DB68074A136000BF1C3760
:10264000BD4680BC704700BFAC030020980300204B
:102650008C030020880200208402002080B582B014
:1026600000AF786000F052F8064B1B68012BF9D9D7
:10267000054B4FF080521A60BFF34F8FBFF36F8F3F
:10268000F0E700BF8802002004ED00E080B582B0D2
:1026900000AF00237B600CE07A6813469B00134474
:1026A0009B00124A13441846FFF750FB7B68013326
:1026B0007B607B68062BEFD90D48FFF747FB0D4881
:1026C000FFF744FB0C48FFF741FB0C48FFF73EFBCC
:1026D0000B48FFF73BFB0B4B054A1A600A4B054AB8
:1026E0001A6000BF0837BD4680BD00BF88020020C9
:1026F0001403002028030020440300205803002076
:10270000700300203C0300204003002080B582B00D
:1027100000AF19E000F0C8F90F4BDB68DB687B60A5
:102720007B6804331846FFF797FB0C4B1B68013B93
:102730000A4A13600A4B1B68013B094A136000F008
:10274000E1F9786800F00EF8054B1B68002BE1D129
:1027500000BF0837BD4680BD580300208403002019
:102760006C03002080B584B000AF78607B6893F87C
:102770005130002B08D17B681B6B184600F010FB12
:10278000786800F00DFB17E07B6893F85130012B5F
:1027900003D1786800F004FB0EE07B6893F85130B9
:1027A000022B09D04FF0500383F31188BFF36F8FD2
:1027B000BFF34F8FFB60FEE700BF1037BD4680BD03
:1027C00080B483B000AF0E4B1B681B68002B01D197
:1027D000012300E00023002B04D00A4B4FF0FF320E
:1027E0001A6008E0064B1B68DB68DB687B607B686F
:1027F0005B68044A136000BF0C37BD4680BC70475D
:102800003C030020A403002080B584B000AF7860B2
:102810003960294B1B68FB60284B1B680433184642
:10282000FFF71AFB0346002B0BD1244B1B68DB6A16
:10283000012202FA03F3DA43214B1B681340204ABA
:1028400013607B68B3F1FF3F0AD13B68002B07D0D0
:102850001A4B1B68043319461A48FFF7A2FA26E000
:10286000FA687B681344BB60144B1B68BA685A60F3
:10287000BA68FB689A4209D2134B1A680F4B1B685F
:10288000043319461046FFF7AFFA10E00F4B1A68F1
:102890000A4B1B68043319461046FFF7A5FA0C4B88
:1028A0001B68BA689A4202D2094ABB68136000BF2B
:1028B0001037BD4680BD00BF880300208402002081
:1028C0008C03002070030020400300203C03002004
:1028D000A403002080B485B000AFF860B9607A60CE
:1028E000FB68043BFB60FB684FF080721A60FB687A
:1028F000043BFB60BB6823F00102FB681A60FB68C5
:10290000043BFB60084AFB681A60FB68143BFB60F1
:102910007A68FB681A60FB68203BFB60FB6818461E
:102920001437BD4680BC70472D29000880B485B09F
:1029300000AF00237B60104B1B68B3F1FF3F09D051
:102940004FF0500383F31188BFF36F8FBFF34F8FA6
:10295000FB60FEE74FF0500383F31188BFF36F8FE6
:10296000BFF34F8FBB6000BF7B68002BFCD000BF64
:102970001437BD4680BC70471000002000000000E6
:10298000074B19680868B0E8F00F80F30988BFF3B7
:102990006F8F4FF0000080F311884EF00D0E7047DE
:1029A0008402002000BF00BF06480068006880F372
:1029B000088862B661B6BFF34F8FBFF36F8F00DF39
:1029C00000BF00BF08ED00E080B584B000AF314B20
:1029D000FB60FB681B78DBB27B60FB68FF221A7030
:1029E000FB681B78DBB2FB70FB78DBB203F05003B3
:1029F000DAB2294B1A70294B07221A6009E0274BDB
:102A00001B68013B254A1360FB78DBB25B00DBB23D
:102A1000FB70FB78DBB203F08003802BEFD01F4B01
:102A20001B68C3F10703042B09D04FF0500383F355
:102A30001188BFF36F8FBFF34F8FBB60FEE7174B5B
:102A40001B681B02154A1360144B1B6803F4E063F8
:102A5000124A13607B68DAB2FB681A70104B1B686D
:102A60000F4A43F4700313600D4B1B680C4A43F08C
:102A70007043136000F0B0F80A4B00221A60FFF7B1
:102A800093FFFFF791FDFFF751FF00231846103722
:102A9000BD4680BD00E400E0B0030020B403002088
:102AA00020ED00E01000002080B483B000AF4FF0B4
:102AB000500383F31188BFF36F8FBFF34F8F7B6099
:102AC0000E4B1B6801330D4A13600C4B1B68012B26
:102AD0000ED10B4B1B68DBB2002B09D04FF050031B
:102AE00083F31188BFF36F8FBFF34F8F3B60FEE717
:102AF00000BF0C37BD4680BC704700BF10000020EF
:102B000004ED00E080B483B000AF104B1B68002BD5
:102B100009D14FF0500383F31188BFF36F8FBFF3D8
:102B20004F8F7B60FEE7094B1B68013B074A136030
:102B3000064B1B68002B04D100233B603B6883F3EA
:102B4000118800BF0C37BD4680BC704710000020C4
:102B5000EFF30980BFF36F8F0D4B1A6820E9F00F78
:102B600010602DE908404FF0500080F31188FFF706
:102B70001BFD4FF0000080F31188BDE80840196884
:102B80000868B0E8F00F80F30988BFF36F8F7047D3
:102B90008402002000BF00BF80B582B000AF4FF0BC
:102BA000500383F31188BFF36F8FBFF34F8F7B60A8
:102BB000FFF73EFC0346002B03D0064B4FF080523C
:102BC0001A6000233B603B6883F3118800BF08371D
:102BD000BD4680BD04ED00E080B400AF0A4B00228A
:102BE0001A600A4B00221A60094B1B68094AA2FBB3
:102BF00003239B09084A013B1360034B07221A6019
:102C000000BFBD4680BC704710E000E018E000E067
:102C100004000020D34D621014E000E080B58AB0BB
:102C200000AF78600023FB61FFF758FB574B1B6830
:102C3000002B01D100F00CF9554B1A687B6813404A
:102C4000002B40F08C807B68002B1CD008227B6816
:102C500013447B607B6803F00703002B13D07B6871
:102C600023F0070308337B607B6803F00703002B26
:102C700009D04FF0500383F31188BFF36F8FBFF378
:102C80004F8F7B61FEE77B68002B68D0414B1B6850
:102C90007A689A4263D8404B3B623F4B1B687B6229
:102CA00004E07B6A3B627B6A1B687B627B6A5B68D1
:102CB0007A689A4203D97B6A1B68002BF1D1334BA7
:102CC0001B687A6A9A424AD03B6A1B6808221344FE
:102CD000FB617B6A1A683B6A1A607B6A5A687B6888
:102CE000D21A08235B009A421ED97A6A7B68134481
:102CF000BB61BB6903F00703002B09D04FF0500301
:102D000083F31188BFF36F8FBFF34F8F3B61FEE7F3
:102D10007B6A5A687B68D21ABB695A607B6A7A6898
:102D20005A60B86900F0F6F81A4B1A687B6A5B685B
:102D3000D31A184A1360174B1A68184B1B689A422B
:102D400003D2144B1B68154A13607B6A5A68104BF8
:102D50001B681A437B6A5A607B6A00221A60FFF77D
:102D6000CBFAFB6903F00703002B09D04FF05003A7
:102D700083F31188BFF36F8FBFF34F8FFB60FEE7C4
:102D8000FB6918462837BD4680BD00BFC00F002034
:102D9000CC0F0020C40F0020B80F0020C80F002067
:102DA00080B586B000AF78607B687B617B68002B64
:102DB00046D008235B427A6913447B617B693B619F
:102DC0003B695A68204B1B681340002B09D14FF018
:102DD000500383F31188BFF36F8FBFF34F8FFB60F6
:102DE000FEE73B691B68002B09D04FF0500383F3CB
:102DF0001188BFF36F8FBFF34F8FBB60FEE73B6956
:102E00005A68114B1B681340002B19D03B691B6893
:102E1000002B15D13B695A680B4B1B68DB431A40EA
:102E20003B695A60FFF75AFA3B695A68074B1B68BF
:102E30001344064A1360386900F06CF8FFF75CFA37
:102E400000BF1837BD4680BDCC0F0020C40F002046
:102E500080B485B000AF4FF44063BB60274BFB608C
:102E6000FB6803F00703002B0CD0FB680733FB6003
:102E7000FB6823F00703FB60BA68FB68D31A1F4A9C
:102E80001344BB60FB687B601D4A7B6813601C4B6E
:102E900000225A607B68BA681344FB600822FB6812
:102EA0009B1AFB60FB6823F00703FB60FB68154A75
:102EB0001360144B1B6800225A60124B1B680022DF
:102EC0001A607B683B603B68FA68D21A3B685A60BC
:102ED0000C4B1A683B681A603B685B680A4A1360CF
:102EE0003B685B68094A1360094B4FF000421A6067
:102EF00000BF1437BD4680BC704700BFB803002038
:102F0000B80F0020C00F0020C80F0020C40F002001
:102F1000CC0F002080B485B000AF7860274BFB60F9
:102F200002E0FB681B68FB60FB681B687A689A42DA
:102F3000F7D8FB68BB60FB685B68BA6813447A68C3
:102F40009A4208D1FB685A687B685B681A44FB6840
:102F50005A60FB687B607B68BB607B685B68BA68B3
:102F60001A44FB681B689A4218D1FB681A68144B14
:102F70001B689A420DD07B685A68FB681B685B68C7
:102F80001A447B685A60FB681B681A687B681A6081
:102F900008E00B4B1A687B681A6003E0FB681A684C
:102FA0007B681A60FA687B689A4202D0FB687A688C
:102FB0001A6000BF1437BD4680BC7047B80F0020B0
:102FC000C00F002070B500250C4E0D4CA41BA410A2
:102FD000A54209D100F022F800250A4E0A4CA41B94
:102FE000A410A54205D170BD56F82530984701358B
:102FF000EEE756F8253098470135F2E7C43000086F
:10300000C4300008C4300008C83000080346024439
:10301000934200D1704703F8011BF9E7F8B500BFF0
:10302000F8BC08BC9E467047F8B500BFF8BC08BCA9
:043030009E46704701
:1030340048656C6C6F2066726F6D205441534B323F
:10304400200D0A005461736B310000004830000801
:10305400F1030008000000000000000080000000F0
:1030640000000000000000005461736B3200000097
:103074006C30000899030008010000000000000003
:1030840080000000000000000000000002030405AE
:10309400060708090A0B0C0D0E0F101001020000A0
:1030A40049444C45000000000000000000000000FE
:1030B40001020304060708090000000001020304DA
:0430C40035010008CA
:0430C80011010008EA
:1030CC00343000080024F40010000000010000005F
:0430DC00AAAAAAAA48
:040000050800062DBC
:00000001FF
